{
  "transactions": [
    {
      "hash": "0xe9a3ca0178af655ee3ad96932f7f19c213fa8d7bee0b64ba36dec396aa991676",
      "transactionType": "CALL",
      "contractName": null,
      "contractAddress": "0xcb76a8baa8a70bddef540f9341e3e4345133d9a9",
      "function": "mintNft(string)",
      "arguments": [
        "ipfs://example-token-uri"
      ],
      "transaction": {
        "from": "0xcd81faf98327b03bd9f783538414fa0400ff8bf2",
        "to": "0xcb76a8baa8a70bddef540f9341e3e4345133d9a9",
        "gas": "0x29250",
        "value": "0x0",
        "input": "0xda86f4a900000000000000000000000000000000000000000000000000000000000000200000000000000000000000000000000000000000000000000000000000000018697066733a2f2f6578616d706c652d746f6b656e2d7572690000000000000000",
        "nonce": "0xb",
        "chainId": "0xaa36a7"
      },
      "additionalContracts": [],
      "isFixedGasLimit": false
    }
  ],
  "receipts": [
    {
      "status": "0x1",
      "cumulativeGasUsed": "0x1028425",
      "logs": [
        {
          "address": "0xcb76a8baa8a70bddef540f9341e3e4345133d9a9",
          "topics": [
            "0xddf252ad1be2c89b69c2b068fc378daa952ba7f163c4a11628f55a4df523b3ef",
            "0x0000000000000000000000000000000000000000000000000000000000000000",
            "0x000000000000000000000000cd81faf98327b03bd9f783538414fa0400ff8bf2",
            "0x0000000000000000000000000000000000000000000000000000000000000001"
          ],
          "data": "0x",
          "blockHash": "0x08ded90b8fc752f8cd888a9008144bf8221dd3b72a144d66d64df21735f6be08",
          "blockNumber": "0xa7c89d",
          "blockTimestamp": "0x6a22f160",
          "transactionHash": "0xe9a3ca0178af655ee3ad96932f7f19c213fa8d7bee0b64ba36dec396aa991676",
          "transactionIndex": "0xb7",
          "logIndex": "0x1cc",
          "removed": false
        }
      ],
      "logsBloom": "0x00000000000000000000000000000000000000000000000000000000000000000000000000000000000000000000000000000000000000000000000000040000000000000000000000000008000000000000000000040000000000000000000000000000020010000000000000000800000010000000000000000010000040000000000000000000000000000002000000000000010000000000000000000000000000000000000000000000000000000000000000000000000000000000000000000002000000000000000000000000000000000000000000000000000060000000000000000010000000000000000000000000000000000000000000000000",
      "type": "0x2",
      "transactionHash": "0xe9a3ca0178af655ee3ad96932f7f19c213fa8d7bee0b64ba36dec396aa991676",
      "transactionIndex": "0xb7",
      "blockHash": "0x08ded90b8fc752f8cd888a9008144bf8221dd3b72a144d66d64df21735f6be08",
      "blockNumber": "0xa7c89d",
      "gasUsed": "0x1c221",
      "effectiveGasPrice": "0x42019da5",
      "from": "0xcd81faf98327b03bd9f783538414fa0400ff8bf2",
      "to": "0xcb76a8baa8a70bddef540f9341e3e4345133d9a9",
      "contractAddress": null
    }
  ],
  "libraries": [],
  "pending": [],
  "returns": {},
  "timestamp": 1780674912901,
  "chain": 11155111,
  "commit": null
}